{
    "contractName": "Lottery",
    "abi": [
        {
            "inputs": [],
            "stateMutability": "nonpayable",
            "type": "constructor"
        },
        {
            "inputs": [
                {
                    "internalType": "uint256",
                    "name": "index",
                    "type": "uint256"
                }
            ],
            "name": "getBetInfo",
            "outputs": [
                {
                    "internalType": "uint256",
                    "name": "answerBlockNumber",
                    "type": "uint256"
                },
                {
                    "internalType": "address",
                    "name": "bettor",
                    "type": "address"
                },
                {
                    "internalType": "bytes1",
                    "name": "challenges",
                    "type": "bytes1"
                }
            ],
            "stateMutability": "view",
            "type": "function"
        },
        {
            "inputs": [],
            "name": "getPot",
            "outputs": [
                {
                    "internalType": "uint256",
                    "name": "_pot",
                    "type": "uint256"
                }
            ],
            "stateMutability": "view",
            "type": "function"
        },
        {
            "inputs": [],
            "name": "getSomeValue",
            "outputs": [
                {
                    "internalType": "uint256",
                    "name": "value",
                    "type": "uint256"
                }
            ],
            "stateMutability": "pure",
            "type": "function"
        },
        {
            "inputs": [],
            "name": "owner",
            "outputs": [
                {
                    "internalType": "address",
                    "name": "",
                    "type": "address"
                }
            ],
            "stateMutability": "view",
            "type": "function"
        },
        {
            "inputs": [
                {
                    "internalType": "uint256",
                    "name": "index",
                    "type": "uint256"
                }
            ],
            "name": "popBet",
            "outputs": [
                {
                    "internalType": "bool",
                    "name": "",
                    "type": "bool"
                }
            ],
            "stateMutability": "nonpayable",
            "type": "function"
        },
        {
            "inputs": [
                {
                    "internalType": "bytes1",
                    "name": "challenges",
                    "type": "bytes1"
                }
            ],
            "name": "pushBet",
            "outputs": [
                {
                    "internalType": "bool",
                    "name": "",
                    "type": "bool"
                }
            ],
            "stateMutability": "nonpayable",
            "type": "function"
        }
    ],
    "bytecode": "608060405234801561001057600080fd5b50600380546001600160a01b031916331790556102d8806100326000396000f3fe608060405234801561001057600080fd5b50600436106100625760003560e01c80630328209614610067578063403c9fa8146100a257806379141f80146100bc5780638da5cb5b14610109578063a40674b71461012d578063d04c9a8c14610135575b600080fd5b61008e6004803603602081101561007d57600080fd5b50356001600160f81b031916610152565b604080519115158252519081900360200190f35b6100aa6101dd565b60408051918252519081900360200190f35b6100d9600480360360208110156100d257600080fd5b50356101e2565b604080519384526001600160a01b0390921660208401526001600160f81b03191682820152519081900360600190f35b610111610247565b604080516001600160a01b039092168252519081900360200190f35b6100aa610256565b61008e6004803603602081101561014b57600080fd5b503561025b565b600061015c610282565b3360208083019182524360030183526001600160f81b0319851660408085019182526000805481526002909352822093518455915160019384018054935160f81c600160a01b0260ff60a01b196001600160a01b03939093166001600160a01b03199095169490941791909116929092179091558054820190559050919050565b600090565b60008060006101ef610282565b50505060009182525060026020908152604091829020825160608101845281548082526001909201546001600160a01b038116938201849052600160a01b900460f81b6001600160f81b031916930183905292909190565b6003546001600160a01b031681565b600590565b6000908152600260205260408120908155600190810180546001600160a81b031916905590565b60408051606081018252600080825260208201819052918101919091529056fea2646970667358221220e199379d8868bc56a8dab9e208a3ac192663767d5e9710e5003bc64f592a790664736f6c63430007000033",
    "sourcePath": "/Users/4tossy/Documents/공부/lottery-smart-contract/contracts/Lottery.sol",
    "compiler": {
        "name": "solc",
        "version": "0.7.0+commit.9e61f92b"
    },
    "functionHashes": {
        "getBetInfo(uint256)": "79141f80",
        "getPot()": "403c9fa8",
        "getSomeValue()": "a40674b7",
        "owner()": "8da5cb5b",
        "popBet(uint256)": "d04c9a8c",
        "pushBet(bytes1)": "03282096"
    },
    "gasEstimates": {
        "creation": {
            "codeDepositCost": "145600",
            "executionCost": "21025",
            "totalCost": "166625"
        },
        "external": {
            "getBetInfo(uint256)": "2304",
            "getPot()": "198",
            "getSomeValue()": "264",
            "owner()": "1081",
            "popBet(uint256)": "26245",
            "pushBet(bytes1)": "63093"
        }
    }
}